{
  "contractName": "Store",
  "abi": [
    {
      "constant": true,
      "inputs": [],
      "name": "goods_count",
      "outputs": [
        {
          "name": "",
          "type": "uint256"
        }
      ],
      "payable": false,
      "stateMutability": "view",
      "type": "function"
    },
    {
      "constant": true,
      "inputs": [
        {
          "name": "",
          "type": "uint256"
        }
      ],
      "name": "goods_list",
      "outputs": [
        {
          "name": "id",
          "type": "uint256"
        },
        {
          "name": "name",
          "type": "string"
        },
        {
          "name": "count",
          "type": "uint256"
        },
        {
          "name": "price",
          "type": "uint256"
        }
      ],
      "payable": false,
      "stateMutability": "view",
      "type": "function"
    },
    {
      "constant": false,
      "inputs": [
        {
          "name": "Name",
          "type": "string"
        },
        {
          "name": "Count",
          "type": "uint256"
        },
        {
          "name": "Price",
          "type": "uint256"
        }
      ],
      "name": "add_goods",
      "outputs": [
        {
          "name": "",
          "type": "bool"
        }
      ],
      "payable": false,
      "stateMutability": "nonpayable",
      "type": "function"
    },
    {
      "constant": false,
      "inputs": [
        {
          "name": "id",
          "type": "uint256"
        },
        {
          "name": "num",
          "type": "uint256"
        }
      ],
      "name": "add_number_id",
      "outputs": [
        {
          "name": "",
          "type": "bool"
        }
      ],
      "payable": false,
      "stateMutability": "nonpayable",
      "type": "function"
    },
    {
      "constant": false,
      "inputs": [
        {
          "name": "Name",
          "type": "string"
        },
        {
          "name": "num",
          "type": "uint256"
        }
      ],
      "name": "add_number_name",
      "outputs": [
        {
          "name": "",
          "type": "bool"
        }
      ],
      "payable": false,
      "stateMutability": "nonpayable",
      "type": "function"
    },
    {
      "constant": false,
      "inputs": [
        {
          "name": "id",
          "type": "uint256"
        },
        {
          "name": "num",
          "type": "uint256"
        }
      ],
      "name": "decrease_number_id",
      "outputs": [
        {
          "name": "",
          "type": "bool"
        }
      ],
      "payable": false,
      "stateMutability": "nonpayable",
      "type": "function"
    },
    {
      "constant": false,
      "inputs": [
        {
          "name": "Name",
          "type": "string"
        },
        {
          "name": "num",
          "type": "uint256"
        }
      ],
      "name": "decrease_number_name",
      "outputs": [
        {
          "name": "",
          "type": "bool"
        }
      ],
      "payable": false,
      "stateMutability": "nonpayable",
      "type": "function"
    },
    {
      "constant": false,
      "inputs": [
        {
          "name": "id",
          "type": "uint256"
        },
        {
          "name": "Price",
          "type": "uint256"
        }
      ],
      "name": "change_price_id",
      "outputs": [
        {
          "name": "",
          "type": "bool"
        }
      ],
      "payable": false,
      "stateMutability": "nonpayable",
      "type": "function"
    },
    {
      "constant": false,
      "inputs": [
        {
          "name": "Name",
          "type": "string"
        },
        {
          "name": "Price",
          "type": "uint256"
        }
      ],
      "name": "change_price_name",
      "outputs": [
        {
          "name": "",
          "type": "bool"
        }
      ],
      "payable": false,
      "stateMutability": "nonpayable",
      "type": "function"
    },
    {
      "constant": true,
      "inputs": [
        {
          "name": "id",
          "type": "uint256"
        }
      ],
      "name": "find_id",
      "outputs": [
        {
          "name": "",
          "type": "uint256"
        },
        {
          "name": "",
          "type": "string"
        },
        {
          "name": "",
          "type": "uint256"
        },
        {
          "name": "",
          "type": "uint256"
        }
      ],
      "payable": false,
      "stateMutability": "view",
      "type": "function"
    },
    {
      "constant": true,
      "inputs": [
        {
          "name": "Name",
          "type": "string"
        }
      ],
      "name": "find_name",
      "outputs": [
        {
          "name": "",
          "type": "uint256"
        },
        {
          "name": "",
          "type": "string"
        },
        {
          "name": "",
          "type": "uint256"
        },
        {
          "name": "",
          "type": "uint256"
        }
      ],
      "payable": false,
      "stateMutability": "view",
      "type": "function"
    },
    {
      "constant": true,
      "inputs": [],
      "name": "All_goods_num",
      "outputs": [
        {
          "name": "",
          "type": "uint256"
        }
      ],
      "payable": false,
      "stateMutability": "view",
      "type": "function"
    }
  ],
  "bytecode": "0x60806040526000805534801561001457600080fd5b506116c8806100246000396000f3006080604052600436106100ba576000357c0100000000000000000000000000000000000000000000000000000000900463ffffffff1680630ff99641146100bf5780636dbd4d911461017a578063769dac26146101c957806392727ca0146101f45780639c7f9e40146102435780639f28707f146102fe578063b966df9514610389578063c00531e014610414578063c8997c911461043f578063d3bdf10314610536578063d3cb0cbb146105c1578063e86f55f114610656575b600080fd5b3480156100cb57600080fd5b506100ea600480360381019080803590602001909291905050506106a5565b6040518085815260200180602001848152602001838152602001828103825285818151815260200191508051906020019080838360005b8381101561013c578082015181840152602081019050610121565b50505050905090810190601f1680156101695780820380516001836020036101000a031916815260200191505b509550505050505060405180910390f35b34801561018657600080fd5b506101af60048036038101908080359060200190929190803590602001909291905050506107ec565b604051808215151515815260200191505060405180910390f35b3480156101d557600080fd5b506101de610826565b6040518082815260200191505060405180910390f35b34801561020057600080fd5b50610229600480360381019080803590602001909291908035906020019092919050505061082c565b604051808215151515815260200191505060405180910390f35b34801561024f57600080fd5b5061026e60048036038101908080359060200190929190505050610891565b6040518085815260200180602001848152602001838152602001828103825285818151815260200191508051906020019080838360005b838110156102c05780820151818401526020810190506102a5565b50505050905090810190601f1680156102ed5780820380516001836020036101000a031916815260200191505b509550505050505060405180910390f35b34801561030a57600080fd5b5061036f600480360381019080803590602001908201803590602001908080601f016020809104026020016040519081016040528093929190818152602001838380828437820191505050505050919291929080359060200190929190505050610959565b604051808215151515815260200191505060405180910390f35b34801561039557600080fd5b506103fa600480360381019080803590602001908201803590602001908080601f016020809104026020016040519081016040528093929190818152602001838380828437820191505050505050919291929080359060200190929190505050610b78565b604051808215151515815260200191505060405180910390f35b34801561042057600080fd5b50610429610db9565b6040518082815260200191505060405180910390f35b34801561044b57600080fd5b506104a6600480360381019080803590602001908201803590602001908080601f0160208091040260200160405190810160405280939291908181526020018383808284378201915050505050509192919290505050610dc2565b6040518085815260200180602001848152602001838152602001828103825285818151815260200191508051906020019080838360005b838110156104f85780820151818401526020810190506104dd565b50505050905090810190601f1680156105255780820380516001836020036101000a031916815260200191505b509550505050505060405180910390f35b34801561054257600080fd5b506105a7600480360381019080803590602001908201803590602001908080601f0160208091040260200160405190810160405280939291908181526020018383808284378201915050505050509192919290803590602001909291905050506110e5565b604051808215151515815260200191505060405180910390f35b3480156105cd57600080fd5b5061063c600480360381019080803590602001908201803590602001908080601f016020809104026020016040519081016040528093929190818152602001838380828437820191505050505050919291929080359060200190929190803590602001909291905050506112fb565b604051808215151515815260200191505060405180910390f35b34801561066257600080fd5b5061068b600480360381019080803590602001909291908035906020019092919050505061158a565b604051808215151515815260200191505060405180910390f35b60006060600080600054851015156106e55760008060008292506020604051908101604052806000815250919081915080905093509350935093506107e5565b60016000868152602001908152602001600020600001546001600087815260200190815260200160002060010160016000888152602001908152602001600020600201546001600089815260200190815260200160002060030154828054600181600116156101000203166002900480601f0160208091040260200160405190810160405280929190818152602001828054600181600116156101000203166002900480156107d55780601f106107aa576101008083540402835291602001916107d5565b820191906000526020600020905b8154815290600101906020018083116107b857829003601f168201915b5050505050925093509350935093505b9193509193565b6000805483101561081b5781600160008581526020019081526020016000206003018190555060019050610820565b600090505b92915050565b60005481565b6000816001600085815260200190815260200160002060020154101580610854575060005483105b15610886578160016000858152602001908152602001600020600201600082825403925050819055506001905061088b565b600090505b92915050565b6001602052806000526040600020600091509050806000015490806001018054600181600116156101000203166002900480601f0160208091040260200160405190810160405280929190818152602001828054600181600116156101000203166002900480156109435780601f1061091857610100808354040283529160200191610943565b820191906000526020600020905b81548152906001019060200180831161092657829003601f168201915b5050505050908060020154908060030154905084565b600080600090505b600054811015610b6c57836040516020018082805190602001908083835b6020831015156109a4578051825260208201915060208101905060208303925061097f565b6001836020036101000a0380198251168184511680821785525050505050509050019150506040516020818303038152906040526040518082805190602001908083835b602083101515610a0d57805182526020820191506020810190506020830392506109e8565b6001836020036101000a038019825116818451168082178552505050505050905001915050604051809103902060001916600160008381526020019081526020016000206001016040516020018082805460018160011615610100020316600290048015610ab25780601f10610a90576101008083540402835291820191610ab2565b820191906000526020600020905b815481529060010190602001808311610a9e575b50509150506040516020818303038152906040526040518082805190602001908083835b602083101515610afb5780518252602082019150602081019050602083039250610ad6565b6001836020036101000a0380198251168184511680821785525050505050509050019150506040518091039020600019161415610b5f5782600160008381526020019081526020016000206002016000828254019250508190555060019150610b71565b8080600101915050610961565b600091505b5092915050565b600080600090505b600054811015610dad57836040516020018082805190602001908083835b602083101515610bc35780518252602082019150602081019050602083039250610b9e565b6001836020036101000a0380198251168184511680821785525050505050509050019150506040516020818303038152906040526040518082805190602001908083835b602083101515610c2c5780518252602082019150602081019050602083039250610c07565b6001836020036101000a038019825116818451168082178552505050505050905001915050604051809103902060001916600160008381526020019081526020016000206001016040516020018082805460018160011615610100020316600290048015610cd15780601f10610caf576101008083540402835291820191610cd1565b820191906000526020600020905b815481529060010190602001808311610cbd575b50509150506040516020818303038152906040526040518082805190602001908083835b602083101515610d1a5780518252602082019150602081019050602083039250610cf5565b6001836020036101000a038019825116818451168082178552505050505050905001915050604051809103902060001916148015610d6e575082600160008381526020019081526020016000206002015410155b15610da05782600160008381526020019081526020016000206002016000828254039250508190555060019150610db2565b8080600101915050610b80565b600091505b5092915050565b60008054905090565b6000606060008060008090505b6000548110156110b157856040516020018082805190602001908083835b602083101515610e125780518252602082019150602081019050602083039250610ded565b6001836020036101000a0380198251168184511680821785525050505050509050019150506040516020818303038152906040526040518082805190602001908083835b602083101515610e7b5780518252602082019150602081019050602083039250610e56565b6001836020036101000a038019825116818451168082178552505050505050905001915050604051809103902060001916600160008381526020019081526020016000206001016040516020018082805460018160011615610100020316600290048015610f205780601f10610efe576101008083540402835291820191610f20565b820191906000526020600020905b815481529060010190602001808311610f0c575b50509150506040516020818303038152906040526040518082805190602001908083835b602083101515610f695780518252602082019150602081019050602083039250610f44565b6001836020036101000a03801982511681845116808217855250505050505090500191505060405180910390206000191614156110a45760016000828152602001908152602001600020600001546001600083815260200190815260200160002060010160016000848152602001908152602001600020600201546001600085815260200190815260200160002060030154828054600181600116156101000203166002900480601f0160208091040260200160405190810160405280929190818152602001828054600181600116156101000203166002900480156110905780601f1061106557610100808354040283529160200191611090565b820191906000526020600020905b81548152906001019060200180831161107357829003601f168201915b5050505050925094509450945094506110dd565b8080600101915050610dcf565b61270f8061270f8292506020604051908101604052806000815250919081915080905094509450945094505b509193509193565b600080600090505b6000548110156112ef57836040516020018082805190602001908083835b602083101515611130578051825260208201915060208101905060208303925061110b565b6001836020036101000a0380198251168184511680821785525050505050509050019150506040516020818303038152906040526040518082805190602001908083835b6020831015156111995780518252602082019150602081019050602083039250611174565b6001836020036101000a03801982511681845116808217855250505050505090500191505060405180910390206000191660016000838152602001908152602001600020600101604051602001808280546001816001161561010002031660029004801561123e5780601f1061121c57610100808354040283529182019161123e565b820191906000526020600020905b81548152906001019060200180831161122a575b50509150506040516020818303038152906040526040518082805190602001908083835b6020831015156112875780518252602082019150602081019050602083039250611262565b6001836020036101000a03801982511681845116808217855250505050505090500191505060405180910390206000191614156112e257826001600083815260200190815260200160002060030181905550600191506112f4565b80806001019150506110ed565b600091505b5092915050565b6000806113066115ce565b600091505b6000548210156114f257856040516020018082805190602001908083835b60208310151561134e5780518252602082019150602081019050602083039250611329565b6001836020036101000a0380198251168184511680821785525050505050509050019150506040516020818303038152906040526040518082805190602001908083835b6020831015156113b75780518252602082019150602081019050602083039250611392565b6001836020036101000a03801982511681845116808217855250505050505090500191505060405180910390206000191660016000848152602001908152602001600020600101604051602001808280546001816001161561010002031660029004801561145c5780601f1061143a57610100808354040283529182019161145c565b820191906000526020600020905b815481529060010190602001808311611448575b50509150506040516020818303038152906040526040518082805190602001908083835b6020831015156114a55780518252602082019150602081019050602083039250611480565b6001836020036101000a03801982511681845116808217855250505050505090500191505060405180910390206000191614156114e55760009250611581565b818060010192505061130b565b60806040519081016040528060005481526020018781526020018681526020018581525090508060016000805481526020019081526020016000206000820151816000015560208201518160010190805190602001906115539291906115f7565b5060408201518160020155606082015181600301559050506000808154809291906001019190505550600192505b50509392505050565b600080548310151561159f57600090506115c8565b816001600085815260200190815260200160002060020160008282540192505081905550600190505b92915050565b608060405190810160405280600081526020016060815260200160008152602001600081525090565b828054600181600116156101000203166002900490600052602060002090601f016020900481019282601f1061163857805160ff1916838001178555611666565b82800160010185558215611666579182015b8281111561166557825182559160200191906001019061164a565b5b5090506116739190611677565b5090565b61169991905b8082111561169557600081600090555060010161167d565b5090565b905600a165627a7a7230582019fe598f06200d71cebe947325f9eaa26068e11d16422627741d3855df3cdd0b0029",
  "source": "pragma solidity ^0.4.24;\n\ncontract Store {\n    //保存货物的类型信息\n    enum goods_kind { Food, Clothes, Books, Sports , Unknow}\n\n    uint public goods_count=0;\n    \n    //一个货物的结构\n    struct goods {\n        uint id;            //唯一编号\n        string name;        //名称\n        //goods_kind kind;    //类型\n        uint count;         //数量\n        uint price;         //价格\n    }\n    \n    mapping(uint=> goods) public goods_list;\n    \n    //添加某种新的商品\n    function add_goods (string Name,uint Count, uint Price) public returns (bool){\n        //require(keccak256(abi.encodePacked(\"\")) == keccak256(abi.encodePacked(Name)));\n        for(uint i = 0; i < goods_count ; i++){\n            if(keccak256(abi.encodePacked(goods_list[i].name)) == keccak256(abi.encodePacked(Name)))\n            return false;\n        }\n        goods memory good = goods(goods_count, Name, Count, Price);\n        goods_list[goods_count] = good;\n        goods_count++;\n        return true;\n    }\n\n    //根据编号添加增加某一商品的数量\n    function add_number_id (uint id, uint num) public returns (bool){\n        if(id >= goods_count){\n            return false;\n        }\n        goods_list[id].count += num;\n        return true;\n    }\n    \n    //根据商品的名称增加某一商品的数量\n    function add_number_name (string Name, uint num) public returns (bool){\n        for(uint i = 0; i < goods_count ; i++){\n            if(keccak256(abi.encodePacked(goods_list[i].name)) == keccak256(abi.encodePacked(Name))){\n                goods_list[i].count += num;\n                return true;\n            }           \n        }\n        return false;\n    }\n\n    //根据编号减少商品数量\n    function decrease_number_id  (uint id, uint num) public returns (bool) {\n        if(goods_list[id].count >= num || id < goods_count){\n            goods_list[id].count -= num;\n            return true;\n        }\n        return false;\n    }\n\n    //根据名称减少商品的数量\n    function decrease_number_name (string Name, uint num) public returns (bool) {\n        for(uint i = 0; i < goods_count ; i++){\n            if(keccak256(abi.encodePacked(goods_list[i].name)) == keccak256(abi.encodePacked(Name)) && goods_list[i].count >= num){\n                goods_list[i].count -= num;\n                return true;\n            }           \n        }\n        return false;\n    }\n\n    //改变某一商品的价格\n    function change_price_id (uint id, uint Price) public returns (bool) {\n        if(id < goods_count){\n            goods_list[id].price = Price;\n            return true;\n        }\n        return false;\n    }\n\n    function change_price_name (string Name, uint Price) public returns (bool) {\n        for(uint i = 0; i < goods_count ; i++){\n            if(keccak256(abi.encodePacked(goods_list[i].name)) == keccak256(abi.encodePacked(Name))){\n                goods_list[i].price = Price;\n                return true;\n            }           \n        }\n        return false;\n    }\n\n    //查询某一商品的具体信息\n    function find_id (uint id) public view returns (uint, string, uint, uint) {\n        if(id >= goods_count){\n            return (0, \"\", 0,0);\n        }\n        return (goods_list[id].id, goods_list[id].name, goods_list[id].count, goods_list[id].price);\n    }\n\n    //查询某一商品的具体信息\n    function find_name (string Name) public view returns (uint, string, uint, uint) {\n        for(uint i = 0; i < goods_count ; i++){\n            if(keccak256(abi.encodePacked(goods_list[i].name)) == keccak256(abi.encodePacked(Name))){\n                return (goods_list[i].id, goods_list[i].name, goods_list[i].count, goods_list[i].price);\n            }           \n        }\n        return (9999, \"\", 9999, 9999);\n    }\n\n    //查询商品的种类数量\n    function All_goods_num () public view returns (uint) {\n        return goods_count;\n    }\n\n}",
  "sourcePath": "/Users/zhuduoyu/Desktop/Dapp_store/contracts/Store.sol",
  "compiler": {
    "name": "solc",
    "version": "0.4.24+commit.e67f0147.Emscripten.clang"
  },
  "schemaVersion": "2.0.1",
  "updatedAt": "2018-12-31T05:45:17.518Z"
}